{
	"contracts/QiteSwap.sol": {
		"QiteSwap": {
			"abi": [
				{
					"inputs": [
						{
							"internalType": "uint256",
							"name": "",
							"type": "uint256"
						}
					],
					"name": "allPairs",
					"outputs": [
						{
							"internalType": "address",
							"name": "",
							"type": "address"
						}
					],
					"stateMutability": "view",
					"type": "function"
				},
				{
					"inputs": [
						{
							"internalType": "address",
							"name": "_token1",
							"type": "address"
						},
						{
							"internalType": "address",
							"name": "_token2",
							"type": "address"
						},
						{
							"internalType": "string",
							"name": "token1Name",
							"type": "string"
						},
						{
							"internalType": "string",
							"name": "token2Name",
							"type": "string"
						}
					],
					"name": "createPairs",
					"outputs": [
						{
							"internalType": "address",
							"name": "",
							"type": "address"
						}
					],
					"stateMutability": "nonpayable",
					"type": "function"
				},
				{
					"inputs": [
						{
							"internalType": "address",
							"name": "",
							"type": "address"
						},
						{
							"internalType": "address",
							"name": "",
							"type": "address"
						}
					],
					"name": "getPair",
					"outputs": [
						{
							"internalType": "contract QitePool",
							"name": "",
							"type": "address"
						}
					],
					"stateMutability": "view",
					"type": "function"
				}
			],
			"devdoc": {
				"kind": "dev",
				"methods": {},
				"version": 1
			},
			"evm": {
				"assembly": "    /* \"contracts/QiteSwap.sol\":268:1286  contract QiteSwap {... */\n  mstore(0x40, 0x80)\n  callvalue\n  dup1\n  iszero\n  tag_1\n  jumpi\n  0x00\n  dup1\n  revert\ntag_1:\n  pop\n  dataSize(sub_0)\n  dup1\n  dataOffset(sub_0)\n  0x00\n  codecopy\n  0x00\n  return\nstop\n\nsub_0: assembly {\n        /* \"contracts/QiteSwap.sol\":268:1286  contract QiteSwap {... */\n      mstore(0x40, 0x80)\n      callvalue\n      dup1\n      iszero\n      tag_1\n      jumpi\n      0x00\n      dup1\n      revert\n    tag_1:\n      pop\n      jumpi(tag_2, lt(calldatasize, 0x04))\n      shr(0xe0, calldataload(0x00))\n      dup1\n      0x1e3dd18b\n      eq\n      tag_3\n      jumpi\n      dup1\n      0x46efd821\n      eq\n      tag_4\n      jumpi\n      dup1\n      0xe6a43905\n      eq\n      tag_5\n      jumpi\n    tag_2:\n      0x00\n      dup1\n      revert\n        /* \"contracts/QiteSwap.sol\":344:369  address[] public allPairs */\n    tag_3:\n      tag_6\n      0x04\n      dup1\n      calldatasize\n      sub\n      dup2\n      add\n      swap1\n      tag_7\n      swap2\n      swap1\n      tag_8\n      jump\t// in\n    tag_7:\n      tag_9\n      jump\t// in\n    tag_6:\n      mload(0x40)\n      tag_10\n      swap2\n      swap1\n      tag_11\n      jump\t// in\n    tag_10:\n      mload(0x40)\n      dup1\n      swap2\n      sub\n      swap1\n      return\n        /* \"contracts/QiteSwap.sol\":722:1277  function createPairs(address _token1, address _token2, string calldata token1Name, string calldata token2Name) external returns (address) {... */\n    tag_4:\n      tag_12\n      0x04\n      dup1\n      calldatasize\n      sub\n      dup2\n      add\n      swap1\n      tag_13\n      swap2\n      swap1\n      tag_14\n      jump\t// in\n    tag_13:\n      tag_15\n      jump\t// in\n    tag_12:\n      mload(0x40)\n      tag_16\n      swap2\n      swap1\n      tag_11\n      jump\t// in\n    tag_16:\n      mload(0x40)\n      dup1\n      swap2\n      sub\n      swap1\n      return\n        /* \"contracts/QiteSwap.sol\":466:529  mapping(address => mapping(address => QitePool)) public getPair */\n    tag_5:\n      tag_17\n      0x04\n      dup1\n      calldatasize\n      sub\n      dup2\n      add\n      swap1\n      tag_18\n      swap2\n      swap1\n      tag_19\n      jump\t// in\n    tag_18:\n      tag_20\n      jump\t// in\n    tag_17:\n      mload(0x40)\n      tag_21\n      swap2\n      swap1\n      tag_22\n      jump\t// in\n    tag_21:\n      mload(0x40)\n      dup1\n      swap2\n      sub\n      swap1\n      return\n        /* \"contracts/QiteSwap.sol\":344:369  address[] public allPairs */\n    tag_9:\n      0x00\n      dup2\n      dup2\n      sload\n      dup2\n      lt\n      tag_23\n      jumpi\n      0x00\n      dup1\n      revert\n    tag_23:\n      swap1\n      0x00\n      mstore\n      keccak256(0x00, 0x20)\n      add\n      0x00\n      swap2\n      pop\n      sload\n      swap1\n      0x0100\n      exp\n      swap1\n      div\n      0xffffffffffffffffffffffffffffffffffffffff\n      and\n      dup2\n      jump\t// out\n        /* \"contracts/QiteSwap.sol\":722:1277  function createPairs(address _token1, address _token2, string calldata token1Name, string calldata token2Name) external returns (address) {... */\n    tag_15:\n        /* \"contracts/QiteSwap.sol\":851:858  address */\n      0x00\n        /* \"contracts/QiteSwap.sol\":889:896  _token2 */\n      dup6\n        /* \"contracts/QiteSwap.sol\":878:896  _token1 != _token2 */\n      0xffffffffffffffffffffffffffffffffffffffff\n      and\n        /* \"contracts/QiteSwap.sol\":878:885  _token1 */\n      dup8\n        /* \"contracts/QiteSwap.sol\":878:896  _token1 != _token2 */\n      0xffffffffffffffffffffffffffffffffffffffff\n      and\n      sub\n        /* \"contracts/QiteSwap.sol\":870:933  require(_token1 != _token2, \"Identical address is not allowed\") */\n      tag_26\n      jumpi\n      mload(0x40)\n      0x08c379a000000000000000000000000000000000000000000000000000000000\n      dup2\n      mstore\n      0x04\n      add\n      tag_27\n      swap1\n      tag_28\n      jump\t// in\n    tag_27:\n      mload(0x40)\n      dup1\n      swap2\n      sub\n      swap1\n      revert\n    tag_26:\n        /* \"contracts/QiteSwap.sol\":997:998  0 */\n      0x00\n        /* \"contracts/QiteSwap.sol\":951:999  address(getPair[_token1][_token2]) == address(0) */\n      0xffffffffffffffffffffffffffffffffffffffff\n      and\n        /* \"contracts/QiteSwap.sol\":959:966  getPair */\n      0x01\n        /* \"contracts/QiteSwap.sol\":959:975  getPair[_token1] */\n      0x00\n        /* \"contracts/QiteSwap.sol\":967:974  _token1 */\n      dup10\n        /* \"contracts/QiteSwap.sol\":959:975  getPair[_token1] */\n      0xffffffffffffffffffffffffffffffffffffffff\n      and\n      0xffffffffffffffffffffffffffffffffffffffff\n      and\n      dup2\n      mstore\n      0x20\n      add\n      swap1\n      dup2\n      mstore\n      0x20\n      add\n      0x00\n      keccak256\n        /* \"contracts/QiteSwap.sol\":959:984  getPair[_token1][_token2] */\n      0x00\n        /* \"contracts/QiteSwap.sol\":976:983  _token2 */\n      dup9\n        /* \"contracts/QiteSwap.sol\":959:984  getPair[_token1][_token2] */\n      0xffffffffffffffffffffffffffffffffffffffff\n      and\n      0xffffffffffffffffffffffffffffffffffffffff\n      and\n      dup2\n      mstore\n      0x20\n      add\n      swap1\n      dup2\n      mstore\n      0x20\n      add\n      0x00\n      keccak256\n      0x00\n      swap1\n      sload\n      swap1\n      0x0100\n      exp\n      swap1\n      div\n      0xffffffffffffffffffffffffffffffffffffffff\n      and\n        /* \"contracts/QiteSwap.sol\":951:999  address(getPair[_token1][_token2]) == address(0) */\n      0xffffffffffffffffffffffffffffffffffffffff\n      and\n      eq\n        /* \"contracts/QiteSwap.sol\":943:1023  require(address(getPair[_token1][_token2]) == address(0), \"Pair already exists\") */\n      tag_29\n      jumpi\n      mload(0x40)\n      0x08c379a000000000000000000000000000000000000000000000000000000000\n      dup2\n      mstore\n      0x04\n      add\n      tag_30\n      swap1\n      tag_31\n      jump\t// in\n    tag_30:\n      mload(0x40)\n      dup1\n      swap2\n      sub\n      swap1\n      revert\n    tag_29:\n        /* \"contracts/QiteSwap.sol\":1073:1090  QitePool qitePool */\n      0x00\n        /* \"contracts/QiteSwap.sol\":1093:1107  new QitePool() */\n      mload(0x40)\n      tag_32\n      swap1\n      tag_33\n      jump\t// in\n    tag_32:\n      mload(0x40)\n      dup1\n      swap2\n      sub\n      swap1\n      0x00\n      create\n      dup1\n      iszero\n      dup1\n      iszero\n      tag_34\n      jumpi\n      returndatasize\n      0x00\n      dup1\n      returndatacopy\n      revert(0x00, returndatasize)\n    tag_34:\n      pop\n        /* \"contracts/QiteSwap.sol\":1073:1107  QitePool qitePool = new QitePool() */\n      swap1\n      pop\n        /* \"contracts/QiteSwap.sol\":1145:1153  qitePool */\n      dup1\n        /* \"contracts/QiteSwap.sol\":1117:1124  getPair */\n      0x01\n        /* \"contracts/QiteSwap.sol\":1117:1133  getPair[_token1] */\n      0x00\n        /* \"contracts/QiteSwap.sol\":1125:1132  _token1 */\n      dup11\n        /* \"contracts/QiteSwap.sol\":1117:1133  getPair[_token1] */\n      0xffffffffffffffffffffffffffffffffffffffff\n      and\n      0xffffffffffffffffffffffffffffffffffffffff\n      and\n      dup2\n      mstore\n      0x20\n      add\n      swap1\n      dup2\n      mstore\n      0x20\n      add\n      0x00\n      keccak256\n        /* \"contracts/QiteSwap.sol\":1117:1142  getPair[_token1][_token2] */\n      0x00\n        /* \"contracts/QiteSwap.sol\":1134:1141  _token2 */\n      dup10\n        /* \"contracts/QiteSwap.sol\":1117:1142  getPair[_token1][_token2] */\n      0xffffffffffffffffffffffffffffffffffffffff\n      and\n      0xffffffffffffffffffffffffffffffffffffffff\n      and\n      dup2\n      mstore\n      0x20\n      add\n      swap1\n      dup2\n      mstore\n      0x20\n      add\n      0x00\n      keccak256\n      0x00\n        /* \"contracts/QiteSwap.sol\":1117:1153  getPair[_token1][_token2] = qitePool */\n      0x0100\n      exp\n      dup2\n      sload\n      dup2\n      0xffffffffffffffffffffffffffffffffffffffff\n      mul\n      not\n      and\n      swap1\n      dup4\n      0xffffffffffffffffffffffffffffffffffffffff\n      and\n      mul\n      or\n      swap1\n      sstore\n      pop\n        /* \"contracts/QiteSwap.sol\":1191:1199  qitePool */\n      dup1\n        /* \"contracts/QiteSwap.sol\":1163:1170  getPair */\n      0x01\n        /* \"contracts/QiteSwap.sol\":1163:1179  getPair[_token2] */\n      0x00\n        /* \"contracts/QiteSwap.sol\":1171:1178  _token2 */\n      dup10\n        /* \"contracts/QiteSwap.sol\":1163:1179  getPair[_token2] */\n      0xffffffffffffffffffffffffffffffffffffffff\n      and\n      0xffffffffffffffffffffffffffffffffffffffff\n      and\n      dup2\n      mstore\n      0x20\n      add\n      swap1\n      dup2\n      mstore\n      0x20\n      add\n      0x00\n      keccak256\n        /* \"contracts/QiteSwap.sol\":1163:1188  getPair[_token2][_token1] */\n      0x00\n        /* \"contracts/QiteSwap.sol\":1180:1187  _token1 */\n      dup11\n        /* \"contracts/QiteSwap.sol\":1163:1188  getPair[_token2][_token1] */\n      0xffffffffffffffffffffffffffffffffffffffff\n      and\n      0xffffffffffffffffffffffffffffffffffffffff\n      and\n      dup2\n      mstore\n      0x20\n      add\n      swap1\n      dup2\n      mstore\n      0x20\n      add\n      0x00\n      keccak256\n      0x00\n        /* \"contracts/QiteSwap.sol\":1163:1199  getPair[_token2][_token1] = qitePool */\n      0x0100\n      exp\n      dup2\n      sload\n      dup2\n      0xffffffffffffffffffffffffffffffffffffffff\n      mul\n      not\n      and\n      swap1\n      dup4\n      0xffffffffffffffffffffffffffffffffffffffff\n      and\n      mul\n      or\n      swap1\n      sstore\n      pop\n        /* \"contracts/QiteSwap.sol\":860:1277  {... */\n      pop\n        /* \"contracts/QiteSwap.sol\":722:1277  function createPairs(address _token1, address _token2, string calldata token1Name, string calldata token2Name) external returns (address) {... */\n      swap7\n      swap6\n      pop\n      pop\n      pop\n      pop\n      pop\n      pop\n      jump\t// out\n        /* \"contracts/QiteSwap.sol\":466:529  mapping(address => mapping(address => QitePool)) public getPair */\n    tag_20:\n      mstore(0x20, 0x01)\n      dup2\n      0x00\n      mstore\n      mstore(0x20, keccak256(0x00, 0x40))\n      dup1\n      0x00\n      mstore\n      keccak256(0x00, 0x40)\n      0x00\n      swap2\n      pop\n      swap2\n      pop\n      swap1\n      sload\n      swap1\n      0x0100\n      exp\n      swap1\n      div\n      0xffffffffffffffffffffffffffffffffffffffff\n      and\n      dup2\n      jump\t// out\n    tag_33:\n      dataSize(sub_0)\n      dup1\n      dataOffset(sub_0)\n      dup4\n      codecopy\n      add\n      swap1\n      jump\t// out\n        /* \"#utility.yul\":88:205   */\n    tag_36:\n        /* \"#utility.yul\":197:198   */\n      0x00\n        /* \"#utility.yul\":194:195   */\n      dup1\n        /* \"#utility.yul\":187:199   */\n      revert\n        /* \"#utility.yul\":211:328   */\n    tag_37:\n        /* \"#utility.yul\":320:321   */\n      0x00\n        /* \"#utility.yul\":317:318   */\n      dup1\n        /* \"#utility.yul\":310:322   */\n      revert\n        /* \"#utility.yul\":334:411   */\n    tag_38:\n        /* \"#utility.yul\":371:378   */\n      0x00\n        /* \"#utility.yul\":400:405   */\n      dup2\n        /* \"#utility.yul\":389:405   */\n      swap1\n      pop\n        /* \"#utility.yul\":334:411   */\n      swap2\n      swap1\n      pop\n      jump\t// out\n        /* \"#utility.yul\":417:539   */\n    tag_39:\n        /* \"#utility.yul\":490:514   */\n      tag_66\n        /* \"#utility.yul\":508:513   */\n      dup2\n        /* \"#utility.yul\":490:514   */\n      tag_38\n      jump\t// in\n    tag_66:\n        /* \"#utility.yul\":483:488   */\n      dup2\n        /* \"#utility.yul\":480:515   */\n      eq\n        /* \"#utility.yul\":470:533   */\n      tag_67\n      jumpi\n        /* \"#utility.yul\":529:530   */\n      0x00\n        /* \"#utility.yul\":526:527   */\n      dup1\n        /* \"#utility.yul\":519:531   */\n      revert\n        /* \"#utility.yul\":470:533   */\n    tag_67:\n        /* \"#utility.yul\":417:539   */\n      pop\n      jump\t// out\n        /* \"#utility.yul\":545:684   */\n    tag_40:\n        /* \"#utility.yul\":591:596   */\n      0x00\n        /* \"#utility.yul\":629:635   */\n      dup2\n        /* \"#utility.yul\":616:636   */\n      calldataload\n        /* \"#utility.yul\":607:636   */\n      swap1\n      pop\n        /* \"#utility.yul\":645:678   */\n      tag_69\n        /* \"#utility.yul\":672:677   */\n      dup2\n        /* \"#utility.yul\":645:678   */\n      tag_39\n      jump\t// in\n    tag_69:\n        /* \"#utility.yul\":545:684   */\n      swap3\n      swap2\n      pop\n      pop\n      jump\t// out\n        /* \"#utility.yul\":690:1019   */\n    tag_8:\n        /* \"#utility.yul\":749:755   */\n      0x00\n        /* \"#utility.yul\":798:800   */\n      0x20\n        /* \"#utility.yul\":786:795   */\n      dup3\n        /* \"#utility.yul\":777:784   */\n      dup5\n        /* \"#utility.yul\":773:796   */\n      sub\n        /* \"#utility.yul\":769:801   */\n      slt\n        /* \"#utility.yul\":766:885   */\n      iszero\n      tag_71\n      jumpi\n        /* \"#utility.yul\":804:883   */\n      tag_72\n      tag_36\n      jump\t// in\n    tag_72:\n        /* \"#utility.yul\":766:885   */\n    tag_71:\n        /* \"#utility.yul\":924:925   */\n      0x00\n        /* \"#utility.yul\":949:1002   */\n      tag_73\n        /* \"#utility.yul\":994:1001   */\n      dup5\n        /* \"#utility.yul\":985:991   */\n      dup3\n        /* \"#utility.yul\":974:983   */\n      dup6\n        /* \"#utility.yul\":970:992   */\n      add\n        /* \"#utility.yul\":949:1002   */\n      tag_40\n      jump\t// in\n    tag_73:\n        /* \"#utility.yul\":939:1002   */\n      swap2\n      pop\n        /* \"#utility.yul\":895:1012   */\n      pop\n        /* \"#utility.yul\":690:1019   */\n      swap3\n      swap2\n      pop\n      pop\n      jump\t// out\n        /* \"#utility.yul\":1025:1151   */\n    tag_41:\n        /* \"#utility.yul\":1062:1069   */\n      0x00\n        /* \"#utility.yul\":1102:1144   */\n      0xffffffffffffffffffffffffffffffffffffffff\n        /* \"#utility.yul\":1095:1100   */\n      dup3\n        /* \"#utility.yul\":1091:1145   */\n      and\n        /* \"#utility.yul\":1080:1145   */\n      swap1\n      pop\n        /* \"#utility.yul\":1025:1151   */\n      swap2\n      swap1\n      pop\n      jump\t// out\n        /* \"#utility.yul\":1157:1253   */\n    tag_42:\n        /* \"#utility.yul\":1194:1201   */\n      0x00\n        /* \"#utility.yul\":1223:1247   */\n      tag_76\n        /* \"#utility.yul\":1241:1246   */\n      dup3\n        /* \"#utility.yul\":1223:1247   */\n      tag_41\n      jump\t// in\n    tag_76:\n        /* \"#utility.yul\":1212:1247   */\n      swap1\n      pop\n        /* \"#utility.yul\":1157:1253   */\n      swap2\n      swap1\n      pop\n      jump\t// out\n        /* \"#utility.yul\":1259:1377   */\n    tag_43:\n        /* \"#utility.yul\":1346:1370   */\n      tag_78\n        /* \"#utility.yul\":1364:1369   */\n      dup2\n        /* \"#utility.yul\":1346:1370   */\n      tag_42\n      jump\t// in\n    tag_78:\n        /* \"#utility.yul\":1341:1344   */\n      dup3\n        /* \"#utility.yul\":1334:1371   */\n      mstore\n        /* \"#utility.yul\":1259:1377   */\n      pop\n      pop\n      jump\t// out\n        /* \"#utility.yul\":1383:1605   */\n    tag_11:\n        /* \"#utility.yul\":1476:1480   */\n      0x00\n        /* \"#utility.yul\":1514:1516   */\n      0x20\n        /* \"#utility.yul\":1503:1512   */\n      dup3\n        /* \"#utility.yul\":1499:1517   */\n      add\n        /* \"#utility.yul\":1491:1517   */\n      swap1\n      pop\n        /* \"#utility.yul\":1527:1598   */\n      tag_80\n        /* \"#utility.yul\":1595:1596   */\n      0x00\n        /* \"#utility.yul\":1584:1593   */\n      dup4\n        /* \"#utility.yul\":1580:1597   */\n      add\n        /* \"#utility.yul\":1571:1577   */\n      dup5\n        /* \"#utility.yul\":1527:1598   */\n      tag_43\n      jump\t// in\n    tag_80:\n        /* \"#utility.yul\":1383:1605   */\n      swap3\n      swap2\n      pop\n      pop\n      jump\t// out\n        /* \"#utility.yul\":1611:1733   */\n    tag_44:\n        /* \"#utility.yul\":1684:1708   */\n      tag_82\n        /* \"#utility.yul\":1702:1707   */\n      dup2\n        /* \"#utility.yul\":1684:1708   */\n      tag_42\n      jump\t// in\n    tag_82:\n        /* \"#utility.yul\":1677:1682   */\n      dup2\n        /* \"#utility.yul\":1674:1709   */\n      eq\n        /* \"#utility.yul\":1664:1727   */\n      tag_83\n      jumpi\n        /* \"#utility.yul\":1723:1724   */\n      0x00\n        /* \"#utility.yul\":1720:1721   */\n      dup1\n        /* \"#utility.yul\":1713:1725   */\n      revert\n        /* \"#utility.yul\":1664:1727   */\n    tag_83:\n        /* \"#utility.yul\":1611:1733   */\n      pop\n      jump\t// out\n        /* \"#utility.yul\":1739:1878   */\n    tag_45:\n        /* \"#utility.yul\":1785:1790   */\n      0x00\n        /* \"#utility.yul\":1823:1829   */\n      dup2\n        /* \"#utility.yul\":1810:1830   */\n      calldataload\n        /* \"#utility.yul\":1801:1830   */\n      swap1\n      pop\n        /* \"#utility.yul\":1839:1872   */\n      tag_85\n        /* \"#utility.yul\":1866:1871   */\n      dup2\n        /* \"#utility.yul\":1839:1872   */\n      tag_44\n      jump\t// in\n    tag_85:\n        /* \"#utility.yul\":1739:1878   */\n      swap3\n      swap2\n      pop\n      pop\n      jump\t// out\n        /* \"#utility.yul\":1884:2001   */\n    tag_46:\n        /* \"#utility.yul\":1993:1994   */\n      0x00\n        /* \"#utility.yul\":1990:1991   */\n      dup1\n        /* \"#utility.yul\":1983:1995   */\n      revert\n        /* \"#utility.yul\":2007:2124   */\n    tag_47:\n        /* \"#utility.yul\":2116:2117   */\n      0x00\n        /* \"#utility.yul\":2113:2114   */\n      dup1\n        /* \"#utility.yul\":2106:2118   */\n      revert\n        /* \"#utility.yul\":2130:2247   */\n    tag_48:\n        /* \"#utility.yul\":2239:2240   */\n      0x00\n        /* \"#utility.yul\":2236:2237   */\n      dup1\n        /* \"#utility.yul\":2229:2241   */\n      revert\n        /* \"#utility.yul\":2267:2820   */\n    tag_49:\n        /* \"#utility.yul\":2325:2333   */\n      0x00\n        /* \"#utility.yul\":2335:2341   */\n      dup1\n        /* \"#utility.yul\":2385:2388   */\n      dup4\n        /* \"#utility.yul\":2378:2382   */\n      0x1f\n        /* \"#utility.yul\":2370:2376   */\n      dup5\n        /* \"#utility.yul\":2366:2383   */\n      add\n        /* \"#utility.yul\":2362:2389   */\n      slt\n        /* \"#utility.yul\":2352:2474   */\n      tag_90\n      jumpi\n        /* \"#utility.yul\":2393:2472   */\n      tag_91\n      tag_46\n      jump\t// in\n    tag_91:\n        /* \"#utility.yul\":2352:2474   */\n    tag_90:\n        /* \"#utility.yul\":2506:2512   */\n      dup3\n        /* \"#utility.yul\":2493:2513   */\n      calldataload\n        /* \"#utility.yul\":2483:2513   */\n      swap1\n      pop\n        /* \"#utility.yul\":2536:2554   */\n      0xffffffffffffffff\n        /* \"#utility.yul\":2528:2534   */\n      dup2\n        /* \"#utility.yul\":2525:2555   */\n      gt\n        /* \"#utility.yul\":2522:2639   */\n      iszero\n      tag_92\n      jumpi\n        /* \"#utility.yul\":2558:2637   */\n      tag_93\n      tag_47\n      jump\t// in\n    tag_93:\n        /* \"#utility.yul\":2522:2639   */\n    tag_92:\n        /* \"#utility.yul\":2672:2676   */\n      0x20\n        /* \"#utility.yul\":2664:2670   */\n      dup4\n        /* \"#utility.yul\":2660:2677   */\n      add\n        /* \"#utility.yul\":2648:2677   */\n      swap2\n      pop\n        /* \"#utility.yul\":2726:2729   */\n      dup4\n        /* \"#utility.yul\":2718:2722   */\n      0x01\n        /* \"#utility.yul\":2710:2716   */\n      dup3\n        /* \"#utility.yul\":2706:2723   */\n      mul\n        /* \"#utility.yul\":2696:2704   */\n      dup4\n        /* \"#utility.yul\":2692:2724   */\n      add\n        /* \"#utility.yul\":2689:2730   */\n      gt\n        /* \"#utility.yul\":2686:2814   */\n      iszero\n      tag_94\n      jumpi\n        /* \"#utility.yul\":2733:2812   */\n      tag_95\n      tag_48\n      jump\t// in\n    tag_95:\n        /* \"#utility.yul\":2686:2814   */\n    tag_94:\n        /* \"#utility.yul\":2267:2820   */\n      swap3\n      pop\n      swap3\n      swap1\n      pop\n      jump\t// out\n        /* \"#utility.yul\":2826:3991   */\n    tag_14:\n        /* \"#utility.yul\":2936:2942   */\n      0x00\n        /* \"#utility.yul\":2944:2950   */\n      dup1\n        /* \"#utility.yul\":2952:2958   */\n      0x00\n        /* \"#utility.yul\":2960:2966   */\n      dup1\n        /* \"#utility.yul\":2968:2974   */\n      0x00\n        /* \"#utility.yul\":2976:2982   */\n      dup1\n        /* \"#utility.yul\":3025:3028   */\n      0x80\n        /* \"#utility.yul\":3013:3022   */\n      dup8\n        /* \"#utility.yul\":3004:3011   */\n      dup10\n        /* \"#utility.yul\":3000:3023   */\n      sub\n        /* \"#utility.yul\":2996:3029   */\n      slt\n        /* \"#utility.yul\":2993:3113   */\n      iszero\n      tag_97\n      jumpi\n        /* \"#utility.yul\":3032:3111   */\n      tag_98\n      tag_36\n      jump\t// in\n    tag_98:\n        /* \"#utility.yul\":2993:3113   */\n    tag_97:\n        /* \"#utility.yul\":3152:3153   */\n      0x00\n        /* \"#utility.yul\":3177:3230   */\n      tag_99\n        /* \"#utility.yul\":3222:3229   */\n      dup10\n        /* \"#utility.yul\":3213:3219   */\n      dup3\n        /* \"#utility.yul\":3202:3211   */\n      dup11\n        /* \"#utility.yul\":3198:3220   */\n      add\n        /* \"#utility.yul\":3177:3230   */\n      tag_45\n      jump\t// in\n    tag_99:\n        /* \"#utility.yul\":3167:3230   */\n      swap7\n      pop\n        /* \"#utility.yul\":3123:3240   */\n      pop\n        /* \"#utility.yul\":3279:3281   */\n      0x20\n        /* \"#utility.yul\":3305:3358   */\n      tag_100\n        /* \"#utility.yul\":3350:3357   */\n      dup10\n        /* \"#utility.yul\":3341:3347   */\n      dup3\n        /* \"#utility.yul\":3330:3339   */\n      dup11\n        /* \"#utility.yul\":3326:3348   */\n      add\n        /* \"#utility.yul\":3305:3358   */\n      tag_45\n      jump\t// in\n    tag_100:\n        /* \"#utility.yul\":3295:3358   */\n      swap6\n      pop\n        /* \"#utility.yul\":3250:3368   */\n      pop\n        /* \"#utility.yul\":3435:3437   */\n      0x40\n        /* \"#utility.yul\":3424:3433   */\n      dup8\n        /* \"#utility.yul\":3420:3438   */\n      add\n        /* \"#utility.yul\":3407:3439   */\n      calldataload\n        /* \"#utility.yul\":3466:3484   */\n      0xffffffffffffffff\n        /* \"#utility.yul\":3458:3464   */\n      dup2\n        /* \"#utility.yul\":3455:3485   */\n      gt\n        /* \"#utility.yul\":3452:3569   */\n      iszero\n      tag_101\n      jumpi\n        /* \"#utility.yul\":3488:3567   */\n      tag_102\n      tag_37\n      jump\t// in\n    tag_102:\n        /* \"#utility.yul\":3452:3569   */\n    tag_101:\n        /* \"#utility.yul\":3601:3666   */\n      tag_103\n        /* \"#utility.yul\":3658:3665   */\n      dup10\n        /* \"#utility.yul\":3649:3655   */\n      dup3\n        /* \"#utility.yul\":3638:3647   */\n      dup11\n        /* \"#utility.yul\":3634:3656   */\n      add\n        /* \"#utility.yul\":3601:3666   */\n      tag_49\n      jump\t// in\n    tag_103:\n        /* \"#utility.yul\":3583:3666   */\n      swap5\n      pop\n      swap5\n      pop\n        /* \"#utility.yul\":3378:3676   */\n      pop\n        /* \"#utility.yul\":3743:3745   */\n      0x60\n        /* \"#utility.yul\":3732:3741   */\n      dup8\n        /* \"#utility.yul\":3728:3746   */\n      add\n        /* \"#utility.yul\":3715:3747   */\n      calldataload\n        /* \"#utility.yul\":3774:3792   */\n      0xffffffffffffffff\n        /* \"#utility.yul\":3766:3772   */\n      dup2\n        /* \"#utility.yul\":3763:3793   */\n      gt\n        /* \"#utility.yul\":3760:3877   */\n      iszero\n      tag_104\n      jumpi\n        /* \"#utility.yul\":3796:3875   */\n      tag_105\n      tag_37\n      jump\t// in\n    tag_105:\n        /* \"#utility.yul\":3760:3877   */\n    tag_104:\n        /* \"#utility.yul\":3909:3974   */\n      tag_106\n        /* \"#utility.yul\":3966:3973   */\n      dup10\n        /* \"#utility.yul\":3957:3963   */\n      dup3\n        /* \"#utility.yul\":3946:3955   */\n      dup11\n        /* \"#utility.yul\":3942:3964   */\n      add\n        /* \"#utility.yul\":3909:3974   */\n      tag_49\n      jump\t// in\n    tag_106:\n        /* \"#utility.yul\":3891:3974   */\n      swap3\n      pop\n      swap3\n      pop\n        /* \"#utility.yul\":3686:3984   */\n      pop\n        /* \"#utility.yul\":2826:3991   */\n      swap3\n      swap6\n      pop\n      swap3\n      swap6\n      pop\n      swap3\n      swap6\n      jump\t// out\n        /* \"#utility.yul\":3997:4471   */\n    tag_19:\n        /* \"#utility.yul\":4065:4071   */\n      0x00\n        /* \"#utility.yul\":4073:4079   */\n      dup1\n        /* \"#utility.yul\":4122:4124   */\n      0x40\n        /* \"#utility.yul\":4110:4119   */\n      dup4\n        /* \"#utility.yul\":4101:4108   */\n      dup6\n        /* \"#utility.yul\":4097:4120   */\n      sub\n        /* \"#utility.yul\":4093:4125   */\n      slt\n        /* \"#utility.yul\":4090:4209   */\n      iszero\n      tag_108\n      jumpi\n        /* \"#utility.yul\":4128:4207   */\n      tag_109\n      tag_36\n      jump\t// in\n    tag_109:\n        /* \"#utility.yul\":4090:4209   */\n    tag_108:\n        /* \"#utility.yul\":4248:4249   */\n      0x00\n        /* \"#utility.yul\":4273:4326   */\n      tag_110\n        /* \"#utility.yul\":4318:4325   */\n      dup6\n        /* \"#utility.yul\":4309:4315   */\n      dup3\n        /* \"#utility.yul\":4298:4307   */\n      dup7\n        /* \"#utility.yul\":4294:4316   */\n      add\n        /* \"#utility.yul\":4273:4326   */\n      tag_45\n      jump\t// in\n    tag_110:\n        /* \"#utility.yul\":4263:4326   */\n      swap3\n      pop\n        /* \"#utility.yul\":4219:4336   */\n      pop\n        /* \"#utility.yul\":4375:4377   */\n      0x20\n        /* \"#utility.yul\":4401:4454   */\n      tag_111\n        /* \"#utility.yul\":4446:4453   */\n      dup6\n        /* \"#utility.yul\":4437:4443   */\n      dup3\n        /* \"#utility.yul\":4426:4435   */\n      dup7\n        /* \"#utility.yul\":4422:4444   */\n      add\n        /* \"#utility.yul\":4401:4454   */\n      tag_45\n      jump\t// in\n    tag_111:\n        /* \"#utility.yul\":4391:4454   */\n      swap2\n      pop\n        /* \"#utility.yul\":4346:4464   */\n      pop\n        /* \"#utility.yul\":3997:4471   */\n      swap3\n      pop\n      swap3\n      swap1\n      pop\n      jump\t// out\n        /* \"#utility.yul\":4477:4537   */\n    tag_50:\n        /* \"#utility.yul\":4505:4508   */\n      0x00\n        /* \"#utility.yul\":4526:4531   */\n      dup2\n        /* \"#utility.yul\":4519:4531   */\n      swap1\n      pop\n        /* \"#utility.yul\":4477:4537   */\n      swap2\n      swap1\n      pop\n      jump\t// out\n        /* \"#utility.yul\":4543:4685   */\n    tag_51:\n        /* \"#utility.yul\":4593:4602   */\n      0x00\n        /* \"#utility.yul\":4626:4679   */\n      tag_114\n        /* \"#utility.yul\":4644:4678   */\n      tag_115\n        /* \"#utility.yul\":4653:4677   */\n      tag_116\n        /* \"#utility.yul\":4671:4676   */\n      dup5\n        /* \"#utility.yul\":4653:4677   */\n      tag_41\n      jump\t// in\n    tag_116:\n        /* \"#utility.yul\":4644:4678   */\n      tag_50\n      jump\t// in\n    tag_115:\n        /* \"#utility.yul\":4626:4679   */\n      tag_41\n      jump\t// in\n    tag_114:\n        /* \"#utility.yul\":4613:4679   */\n      swap1\n      pop\n        /* \"#utility.yul\":4543:4685   */\n      swap2\n      swap1\n      pop\n      jump\t// out\n        /* \"#utility.yul\":4691:4817   */\n    tag_52:\n        /* \"#utility.yul\":4741:4750   */\n      0x00\n        /* \"#utility.yul\":4774:4811   */\n      tag_118\n        /* \"#utility.yul\":4805:4810   */\n      dup3\n        /* \"#utility.yul\":4774:4811   */\n      tag_51\n      jump\t// in\n    tag_118:\n        /* \"#utility.yul\":4761:4811   */\n      swap1\n      pop\n        /* \"#utility.yul\":4691:4817   */\n      swap2\n      swap1\n      pop\n      jump\t// out\n        /* \"#utility.yul\":4823:4963   */\n    tag_53:\n        /* \"#utility.yul\":4887:4896   */\n      0x00\n        /* \"#utility.yul\":4920:4957   */\n      tag_120\n        /* \"#utility.yul\":4951:4956   */\n      dup3\n        /* \"#utility.yul\":4920:4957   */\n      tag_52\n      jump\t// in\n    tag_120:\n        /* \"#utility.yul\":4907:4957   */\n      swap1\n      pop\n        /* \"#utility.yul\":4823:4963   */\n      swap2\n      swap1\n      pop\n      jump\t// out\n        /* \"#utility.yul\":4969:5128   */\n    tag_54:\n        /* \"#utility.yul\":5070:5121   */\n      tag_122\n        /* \"#utility.yul\":5115:5120   */\n      dup2\n        /* \"#utility.yul\":5070:5121   */\n      tag_53\n      jump\t// in\n    tag_122:\n        /* \"#utility.yul\":5065:5068   */\n      dup3\n        /* \"#utility.yul\":5058:5122   */\n      mstore\n        /* \"#utility.yul\":4969:5128   */\n      pop\n      pop\n      jump\t// out\n        /* \"#utility.yul\":5134:5384   */\n    tag_22:\n        /* \"#utility.yul\":5241:5245   */\n      0x00\n        /* \"#utility.yul\":5279:5281   */\n      0x20\n        /* \"#utility.yul\":5268:5277   */\n      dup3\n        /* \"#utility.yul\":5264:5282   */\n      add\n        /* \"#utility.yul\":5256:5282   */\n      swap1\n      pop\n        /* \"#utility.yul\":5292:5377   */\n      tag_124\n        /* \"#utility.yul\":5374:5375   */\n      0x00\n        /* \"#utility.yul\":5363:5372   */\n      dup4\n        /* \"#utility.yul\":5359:5376   */\n      add\n        /* \"#utility.yul\":5350:5356   */\n      dup5\n        /* \"#utility.yul\":5292:5377   */\n      tag_54\n      jump\t// in\n    tag_124:\n        /* \"#utility.yul\":5134:5384   */\n      swap3\n      swap2\n      pop\n      pop\n      jump\t// out\n        /* \"#utility.yul\":5390:5559   */\n    tag_55:\n        /* \"#utility.yul\":5474:5485   */\n      0x00\n        /* \"#utility.yul\":5508:5514   */\n      dup3\n        /* \"#utility.yul\":5503:5506   */\n      dup3\n        /* \"#utility.yul\":5496:5515   */\n      mstore\n        /* \"#utility.yul\":5548:5552   */\n      0x20\n        /* \"#utility.yul\":5543:5546   */\n      dup3\n        /* \"#utility.yul\":5539:5553   */\n      add\n        /* \"#utility.yul\":5524:5553   */\n      swap1\n      pop\n        /* \"#utility.yul\":5390:5559   */\n      swap3\n      swap2\n      pop\n      pop\n      jump\t// out\n        /* \"#utility.yul\":5565:5747   */\n    tag_56:\n        /* \"#utility.yul\":5705:5739   */\n      0x4964656e746963616c2061646472657373206973206e6f7420616c6c6f776564\n        /* \"#utility.yul\":5701:5702   */\n      0x00\n        /* \"#utility.yul\":5693:5699   */\n      dup3\n        /* \"#utility.yul\":5689:5703   */\n      add\n        /* \"#utility.yul\":5682:5740   */\n      mstore\n        /* \"#utility.yul\":5565:5747   */\n      pop\n      jump\t// out\n        /* \"#utility.yul\":5753:6119   */\n    tag_57:\n        /* \"#utility.yul\":5895:5898   */\n      0x00\n        /* \"#utility.yul\":5916:5983   */\n      tag_128\n        /* \"#utility.yul\":5980:5982   */\n      0x20\n        /* \"#utility.yul\":5975:5978   */\n      dup4\n        /* \"#utility.yul\":5916:5983   */\n      tag_55\n      jump\t// in\n    tag_128:\n        /* \"#utility.yul\":5909:5983   */\n      swap2\n      pop\n        /* \"#utility.yul\":5992:6085   */\n      tag_129\n        /* \"#utility.yul\":6081:6084   */\n      dup3\n        /* \"#utility.yul\":5992:6085   */\n      tag_56\n      jump\t// in\n    tag_129:\n        /* \"#utility.yul\":6110:6112   */\n      0x20\n        /* \"#utility.yul\":6105:6108   */\n      dup3\n        /* \"#utility.yul\":6101:6113   */\n      add\n        /* \"#utility.yul\":6094:6113   */\n      swap1\n      pop\n        /* \"#utility.yul\":5753:6119   */\n      swap2\n      swap1\n      pop\n      jump\t// out\n        /* \"#utility.yul\":6125:6544   */\n    tag_28:\n        /* \"#utility.yul\":6291:6295   */\n      0x00\n        /* \"#utility.yul\":6329:6331   */\n      0x20\n        /* \"#utility.yul\":6318:6327   */\n      dup3\n        /* \"#utility.yul\":6314:6332   */\n      add\n        /* \"#utility.yul\":6306:6332   */\n      swap1\n      pop\n        /* \"#utility.yul\":6378:6387   */\n      dup2\n        /* \"#utility.yul\":6372:6376   */\n      dup2\n        /* \"#utility.yul\":6368:6388   */\n      sub\n        /* \"#utility.yul\":6364:6365   */\n      0x00\n        /* \"#utility.yul\":6353:6362   */\n      dup4\n        /* \"#utility.yul\":6349:6366   */\n      add\n        /* \"#utility.yul\":6342:6389   */\n      mstore\n        /* \"#utility.yul\":6406:6537   */\n      tag_131\n        /* \"#utility.yul\":6532:6536   */\n      dup2\n        /* \"#utility.yul\":6406:6537   */\n      tag_57\n      jump\t// in\n    tag_131:\n        /* \"#utility.yul\":6398:6537   */\n      swap1\n      pop\n        /* \"#utility.yul\":6125:6544   */\n      swap2\n      swap1\n      pop\n      jump\t// out\n        /* \"#utility.yul\":6550:6719   */\n    tag_58:\n        /* \"#utility.yul\":6690:6711   */\n      0x5061697220616c72656164792065786973747300000000000000000000000000\n        /* \"#utility.yul\":6686:6687   */\n      0x00\n        /* \"#utility.yul\":6678:6684   */\n      dup3\n        /* \"#utility.yul\":6674:6688   */\n      add\n        /* \"#utility.yul\":6667:6712   */\n      mstore\n        /* \"#utility.yul\":6550:6719   */\n      pop\n      jump\t// out\n        /* \"#utility.yul\":6725:7091   */\n    tag_59:\n        /* \"#utility.yul\":6867:6870   */\n      0x00\n        /* \"#utility.yul\":6888:6955   */\n      tag_134\n        /* \"#utility.yul\":6952:6954   */\n      0x13\n        /* \"#utility.yul\":6947:6950   */\n      dup4\n        /* \"#utility.yul\":6888:6955   */\n      tag_55\n      jump\t// in\n    tag_134:\n        /* \"#utility.yul\":6881:6955   */\n      swap2\n      pop\n        /* \"#utility.yul\":6964:7057   */\n      tag_135\n        /* \"#utility.yul\":7053:7056   */\n      dup3\n        /* \"#utility.yul\":6964:7057   */\n      tag_58\n      jump\t// in\n    tag_135:\n        /* \"#utility.yul\":7082:7084   */\n      0x20\n        /* \"#utility.yul\":7077:7080   */\n      dup3\n        /* \"#utility.yul\":7073:7085   */\n      add\n        /* \"#utility.yul\":7066:7085   */\n      swap1\n      pop\n        /* \"#utility.yul\":6725:7091   */\n      swap2\n      swap1\n      pop\n      jump\t// out\n        /* \"#utility.yul\":7097:7516   */\n    tag_31:\n        /* \"#utility.yul\":7263:7267   */\n      0x00\n        /* \"#utility.yul\":7301:7303   */\n      0x20\n        /* \"#utility.yul\":7290:7299   */\n      dup3\n        /* \"#utility.yul\":7286:7304   */\n      add\n        /* \"#utility.yul\":7278:7304   */\n      swap1\n      pop\n        /* \"#utility.yul\":7350:7359   */\n      dup2\n        /* \"#utility.yul\":7344:7348   */\n      dup2\n        /* \"#utility.yul\":7340:7360   */\n      sub\n        /* \"#utility.yul\":7336:7337   */\n      0x00\n        /* \"#utility.yul\":7325:7334   */\n      dup4\n        /* \"#utility.yul\":7321:7338   */\n      add\n        /* \"#utility.yul\":7314:7361   */\n      mstore\n        /* \"#utility.yul\":7378:7509   */\n      tag_137\n        /* \"#utility.yul\":7504:7508   */\n      dup2\n        /* \"#utility.yul\":7378:7509   */\n      tag_59\n      jump\t// in\n    tag_137:\n        /* \"#utility.yul\":7370:7509   */\n      swap1\n      pop\n        /* \"#utility.yul\":7097:7516   */\n      swap2\n      swap1\n      pop\n      jump\t// out\n    stop\n\n    sub_0: assembly {\n            /* \"contracts/QitePool.sol\":234:260  contract QitePool {... */\n          mstore(0x40, 0x80)\n          callvalue\n          dup1\n          iszero\n          tag_1\n          jumpi\n          0x00\n          dup1\n          revert\n        tag_1:\n          pop\n          dataSize(sub_0)\n          dup1\n          dataOffset(sub_0)\n          0x00\n          codecopy\n          0x00\n          return\n        stop\n\n        sub_0: assembly {\n                /* \"contracts/QitePool.sol\":234:260  contract QitePool {... */\n              mstore(0x40, 0x80)\n              0x00\n              dup1\n              revert\n\n            auxdata: 0xa2646970667358221220843bf8d93a6cdc677d2b94afb1011e8b50a523dfbef1dd569ef411226f2b312064736f6c634300081a0033\n        }\n    }\n\n    auxdata: 0xa26469706673582212207349a10abc2fb8d1f41aefb3ead432bbc9c838b6a6b9378c8e4c62f1292dd1e464736f6c634300081a0033\n}\n",
				"bytecode": {
					"linkReferences": {},
					"object": "6080604052348015600e575f80fd5b506108768061001c5f395ff3fe608060405234801561000f575f80fd5b506004361061003f575f3560e01c80631e3dd18b1461004357806346efd82114610073578063e6a43905146100a3575b5f80fd5b61005d600480360381019061005891906104a5565b6100d3565b60405161006a919061050f565b60405180910390f35b61008d600480360381019061008891906105b3565b61010d565b60405161009a919061050f565b60405180910390f35b6100bd60048036038101906100b89190610656565b610421565b6040516100ca91906106ef565b60405180910390f35b5f81815481106100e1575f80fd5b905f5260205f20015f915054906101000a900473ffffffffffffffffffffffffffffffffffffffff1681565b5f8573ffffffffffffffffffffffffffffffffffffffff168773ffffffffffffffffffffffffffffffffffffffff160361017c576040517f08c379a000000000000000000000000000000000000000000000000000000000815260040161017390610762565b60405180910390fd5b5f73ffffffffffffffffffffffffffffffffffffffff1660015f8973ffffffffffffffffffffffffffffffffffffffff1673ffffffffffffffffffffffffffffffffffffffff1681526020019081526020015f205f8873ffffffffffffffffffffffffffffffffffffffff1673ffffffffffffffffffffffffffffffffffffffff1681526020019081526020015f205f9054906101000a900473ffffffffffffffffffffffffffffffffffffffff1673ffffffffffffffffffffffffffffffffffffffff1614610281576040517f08c379a0000000000000000000000000000000000000000000000000000000008152600401610278906107ca565b60405180910390fd5b5f60405161028e9061045e565b604051809103905ff0801580156102a7573d5f803e3d5ffd5b5090508060015f8a73ffffffffffffffffffffffffffffffffffffffff1673ffffffffffffffffffffffffffffffffffffffff1681526020019081526020015f205f8973ffffffffffffffffffffffffffffffffffffffff1673ffffffffffffffffffffffffffffffffffffffff1681526020019081526020015f205f6101000a81548173ffffffffffffffffffffffffffffffffffffffff021916908373ffffffffffffffffffffffffffffffffffffffff1602179055508060015f8973ffffffffffffffffffffffffffffffffffffffff1673ffffffffffffffffffffffffffffffffffffffff1681526020019081526020015f205f8a73ffffffffffffffffffffffffffffffffffffffff1673ffffffffffffffffffffffffffffffffffffffff1681526020019081526020015f205f6101000a81548173ffffffffffffffffffffffffffffffffffffffff021916908373ffffffffffffffffffffffffffffffffffffffff160217905550509695505050505050565b6001602052815f5260405f20602052805f5260405f205f915091509054906101000a900473ffffffffffffffffffffffffffffffffffffffff1681565b6058806107e983390190565b5f80fd5b5f80fd5b5f819050919050565b61048481610472565b811461048e575f80fd5b50565b5f8135905061049f8161047b565b92915050565b5f602082840312156104ba576104b961046a565b5b5f6104c784828501610491565b91505092915050565b5f73ffffffffffffffffffffffffffffffffffffffff82169050919050565b5f6104f9826104d0565b9050919050565b610509816104ef565b82525050565b5f6020820190506105225f830184610500565b92915050565b610531816104ef565b811461053b575f80fd5b50565b5f8135905061054c81610528565b92915050565b5f80fd5b5f80fd5b5f80fd5b5f8083601f84011261057357610572610552565b5b8235905067ffffffffffffffff8111156105905761058f610556565b5b6020830191508360018202830111156105ac576105ab61055a565b5b9250929050565b5f805f805f80608087890312156105cd576105cc61046a565b5b5f6105da89828a0161053e565b96505060206105eb89828a0161053e565b955050604087013567ffffffffffffffff81111561060c5761060b61046e565b5b61061889828a0161055e565b9450945050606087013567ffffffffffffffff81111561063b5761063a61046e565b5b61064789828a0161055e565b92509250509295509295509295565b5f806040838503121561066c5761066b61046a565b5b5f6106798582860161053e565b925050602061068a8582860161053e565b9150509250929050565b5f819050919050565b5f6106b76106b26106ad846104d0565b610694565b6104d0565b9050919050565b5f6106c88261069d565b9050919050565b5f6106d9826106be565b9050919050565b6106e9816106cf565b82525050565b5f6020820190506107025f8301846106e0565b92915050565b5f82825260208201905092915050565b7f4964656e746963616c2061646472657373206973206e6f7420616c6c6f7765645f82015250565b5f61074c602083610708565b915061075782610718565b602082019050919050565b5f6020820190508181035f83015261077981610740565b9050919050565b7f5061697220616c726561647920657869737473000000000000000000000000005f82015250565b5f6107b4601383610708565b91506107bf82610780565b602082019050919050565b5f6020820190508181035f8301526107e1816107a8565b905091905056fe6080604052348015600e575f80fd5b50603e80601a5f395ff3fe60806040525f80fdfea2646970667358221220843bf8d93a6cdc677d2b94afb1011e8b50a523dfbef1dd569ef411226f2b312064736f6c634300081a0033a26469706673582212207349a10abc2fb8d1f41aefb3ead432bbc9c838b6a6b9378c8e4c62f1292dd1e464736f6c634300081a0033",
					"opcodes": "PUSH1 0x80 PUSH1 0x40 MSTORE CALLVALUE DUP1 ISZERO PUSH1 0xE JUMPI PUSH0 DUP1 REVERT JUMPDEST POP PUSH2 0x876 DUP1 PUSH2 0x1C PUSH0 CODECOPY PUSH0 RETURN INVALID PUSH1 0x80 PUSH1 0x40 MSTORE CALLVALUE DUP1 ISZERO PUSH2 0xF JUMPI PUSH0 DUP1 REVERT JUMPDEST POP PUSH1 0x4 CALLDATASIZE LT PUSH2 0x3F JUMPI PUSH0 CALLDATALOAD PUSH1 0xE0 SHR DUP1 PUSH4 0x1E3DD18B EQ PUSH2 0x43 JUMPI DUP1 PUSH4 0x46EFD821 EQ PUSH2 0x73 JUMPI DUP1 PUSH4 0xE6A43905 EQ PUSH2 0xA3 JUMPI JUMPDEST PUSH0 DUP1 REVERT JUMPDEST PUSH2 0x5D PUSH1 0x4 DUP1 CALLDATASIZE SUB DUP2 ADD SWAP1 PUSH2 0x58 SWAP2 SWAP1 PUSH2 0x4A5 JUMP JUMPDEST PUSH2 0xD3 JUMP JUMPDEST PUSH1 0x40 MLOAD PUSH2 0x6A SWAP2 SWAP1 PUSH2 0x50F JUMP JUMPDEST PUSH1 0x40 MLOAD DUP1 SWAP2 SUB SWAP1 RETURN JUMPDEST PUSH2 0x8D PUSH1 0x4 DUP1 CALLDATASIZE SUB DUP2 ADD SWAP1 PUSH2 0x88 SWAP2 SWAP1 PUSH2 0x5B3 JUMP JUMPDEST PUSH2 0x10D JUMP JUMPDEST PUSH1 0x40 MLOAD PUSH2 0x9A SWAP2 SWAP1 PUSH2 0x50F JUMP JUMPDEST PUSH1 0x40 MLOAD DUP1 SWAP2 SUB SWAP1 RETURN JUMPDEST PUSH2 0xBD PUSH1 0x4 DUP1 CALLDATASIZE SUB DUP2 ADD SWAP1 PUSH2 0xB8 SWAP2 SWAP1 PUSH2 0x656 JUMP JUMPDEST PUSH2 0x421 JUMP JUMPDEST PUSH1 0x40 MLOAD PUSH2 0xCA SWAP2 SWAP1 PUSH2 0x6EF JUMP JUMPDEST PUSH1 0x40 MLOAD DUP1 SWAP2 SUB SWAP1 RETURN JUMPDEST PUSH0 DUP2 DUP2 SLOAD DUP2 LT PUSH2 0xE1 JUMPI PUSH0 DUP1 REVERT JUMPDEST SWAP1 PUSH0 MSTORE PUSH1 0x20 PUSH0 KECCAK256 ADD PUSH0 SWAP2 POP SLOAD SWAP1 PUSH2 0x100 EXP SWAP1 DIV PUSH20 0xFFFFFFFFFFFFFFFFFFFFFFFFFFFFFFFFFFFFFFFF AND DUP2 JUMP JUMPDEST PUSH0 DUP6 PUSH20 0xFFFFFFFFFFFFFFFFFFFFFFFFFFFFFFFFFFFFFFFF AND DUP8 PUSH20 0xFFFFFFFFFFFFFFFFFFFFFFFFFFFFFFFFFFFFFFFF AND SUB PUSH2 0x17C JUMPI PUSH1 0x40 MLOAD PUSH32 0x8C379A000000000000000000000000000000000000000000000000000000000 DUP2 MSTORE PUSH1 0x4 ADD PUSH2 0x173 SWAP1 PUSH2 0x762 JUMP JUMPDEST PUSH1 0x40 MLOAD DUP1 SWAP2 SUB SWAP1 REVERT JUMPDEST PUSH0 PUSH20 0xFFFFFFFFFFFFFFFFFFFFFFFFFFFFFFFFFFFFFFFF AND PUSH1 0x1 PUSH0 DUP10 PUSH20 0xFFFFFFFFFFFFFFFFFFFFFFFFFFFFFFFFFFFFFFFF AND PUSH20 0xFFFFFFFFFFFFFFFFFFFFFFFFFFFFFFFFFFFFFFFF AND DUP2 MSTORE PUSH1 0x20 ADD SWAP1 DUP2 MSTORE PUSH1 0x20 ADD PUSH0 KECCAK256 PUSH0 DUP9 PUSH20 0xFFFFFFFFFFFFFFFFFFFFFFFFFFFFFFFFFFFFFFFF AND PUSH20 0xFFFFFFFFFFFFFFFFFFFFFFFFFFFFFFFFFFFFFFFF AND DUP2 MSTORE PUSH1 0x20 ADD SWAP1 DUP2 MSTORE PUSH1 0x20 ADD PUSH0 KECCAK256 PUSH0 SWAP1 SLOAD SWAP1 PUSH2 0x100 EXP SWAP1 DIV PUSH20 0xFFFFFFFFFFFFFFFFFFFFFFFFFFFFFFFFFFFFFFFF AND PUSH20 0xFFFFFFFFFFFFFFFFFFFFFFFFFFFFFFFFFFFFFFFF AND EQ PUSH2 0x281 JUMPI PUSH1 0x40 MLOAD PUSH32 0x8C379A000000000000000000000000000000000000000000000000000000000 DUP2 MSTORE PUSH1 0x4 ADD PUSH2 0x278 SWAP1 PUSH2 0x7CA JUMP JUMPDEST PUSH1 0x40 MLOAD DUP1 SWAP2 SUB SWAP1 REVERT JUMPDEST PUSH0 PUSH1 0x40 MLOAD PUSH2 0x28E SWAP1 PUSH2 0x45E JUMP JUMPDEST PUSH1 0x40 MLOAD DUP1 SWAP2 SUB SWAP1 PUSH0 CREATE DUP1 ISZERO DUP1 ISZERO PUSH2 0x2A7 JUMPI RETURNDATASIZE PUSH0 DUP1 RETURNDATACOPY RETURNDATASIZE PUSH0 REVERT JUMPDEST POP SWAP1 POP DUP1 PUSH1 0x1 PUSH0 DUP11 PUSH20 0xFFFFFFFFFFFFFFFFFFFFFFFFFFFFFFFFFFFFFFFF AND PUSH20 0xFFFFFFFFFFFFFFFFFFFFFFFFFFFFFFFFFFFFFFFF AND DUP2 MSTORE PUSH1 0x20 ADD SWAP1 DUP2 MSTORE PUSH1 0x20 ADD PUSH0 KECCAK256 PUSH0 DUP10 PUSH20 0xFFFFFFFFFFFFFFFFFFFFFFFFFFFFFFFFFFFFFFFF AND PUSH20 0xFFFFFFFFFFFFFFFFFFFFFFFFFFFFFFFFFFFFFFFF AND DUP2 MSTORE PUSH1 0x20 ADD SWAP1 DUP2 MSTORE PUSH1 0x20 ADD PUSH0 KECCAK256 PUSH0 PUSH2 0x100 EXP DUP2 SLOAD DUP2 PUSH20 0xFFFFFFFFFFFFFFFFFFFFFFFFFFFFFFFFFFFFFFFF MUL NOT AND SWAP1 DUP4 PUSH20 0xFFFFFFFFFFFFFFFFFFFFFFFFFFFFFFFFFFFFFFFF AND MUL OR SWAP1 SSTORE POP DUP1 PUSH1 0x1 PUSH0 DUP10 PUSH20 0xFFFFFFFFFFFFFFFFFFFFFFFFFFFFFFFFFFFFFFFF AND PUSH20 0xFFFFFFFFFFFFFFFFFFFFFFFFFFFFFFFFFFFFFFFF AND DUP2 MSTORE PUSH1 0x20 ADD SWAP1 DUP2 MSTORE PUSH1 0x20 ADD PUSH0 KECCAK256 PUSH0 DUP11 PUSH20 0xFFFFFFFFFFFFFFFFFFFFFFFFFFFFFFFFFFFFFFFF AND PUSH20 0xFFFFFFFFFFFFFFFFFFFFFFFFFFFFFFFFFFFFFFFF AND DUP2 MSTORE PUSH1 0x20 ADD SWAP1 DUP2 MSTORE PUSH1 0x20 ADD PUSH0 KECCAK256 PUSH0 PUSH2 0x100 EXP DUP2 SLOAD DUP2 PUSH20 0xFFFFFFFFFFFFFFFFFFFFFFFFFFFFFFFFFFFFFFFF MUL NOT AND SWAP1 DUP4 PUSH20 0xFFFFFFFFFFFFFFFFFFFFFFFFFFFFFFFFFFFFFFFF AND MUL OR SWAP1 SSTORE POP POP SWAP7 SWAP6 POP POP POP POP POP POP JUMP JUMPDEST PUSH1 0x1 PUSH1 0x20 MSTORE DUP2 PUSH0 MSTORE PUSH1 0x40 PUSH0 KECCAK256 PUSH1 0x20 MSTORE DUP1 PUSH0 MSTORE PUSH1 0x40 PUSH0 KECCAK256 PUSH0 SWAP2 POP SWAP2 POP SWAP1 SLOAD SWAP1 PUSH2 0x100 EXP SWAP1 DIV PUSH20 0xFFFFFFFFFFFFFFFFFFFFFFFFFFFFFFFFFFFFFFFF AND DUP2 JUMP JUMPDEST PUSH1 0x58 DUP1 PUSH2 0x7E9 DUP4 CODECOPY ADD SWAP1 JUMP JUMPDEST PUSH0 DUP1 REVERT JUMPDEST PUSH0 DUP1 REVERT JUMPDEST PUSH0 DUP2 SWAP1 POP SWAP2 SWAP1 POP JUMP JUMPDEST PUSH2 0x484 DUP2 PUSH2 0x472 JUMP JUMPDEST DUP2 EQ PUSH2 0x48E JUMPI PUSH0 DUP1 REVERT JUMPDEST POP JUMP JUMPDEST PUSH0 DUP2 CALLDATALOAD SWAP1 POP PUSH2 0x49F DUP2 PUSH2 0x47B JUMP JUMPDEST SWAP3 SWAP2 POP POP JUMP JUMPDEST PUSH0 PUSH1 0x20 DUP3 DUP5 SUB SLT ISZERO PUSH2 0x4BA JUMPI PUSH2 0x4B9 PUSH2 0x46A JUMP JUMPDEST JUMPDEST PUSH0 PUSH2 0x4C7 DUP5 DUP3 DUP6 ADD PUSH2 0x491 JUMP JUMPDEST SWAP2 POP POP SWAP3 SWAP2 POP POP JUMP JUMPDEST PUSH0 PUSH20 0xFFFFFFFFFFFFFFFFFFFFFFFFFFFFFFFFFFFFFFFF DUP3 AND SWAP1 POP SWAP2 SWAP1 POP JUMP JUMPDEST PUSH0 PUSH2 0x4F9 DUP3 PUSH2 0x4D0 JUMP JUMPDEST SWAP1 POP SWAP2 SWAP1 POP JUMP JUMPDEST PUSH2 0x509 DUP2 PUSH2 0x4EF JUMP JUMPDEST DUP3 MSTORE POP POP JUMP JUMPDEST PUSH0 PUSH1 0x20 DUP3 ADD SWAP1 POP PUSH2 0x522 PUSH0 DUP4 ADD DUP5 PUSH2 0x500 JUMP JUMPDEST SWAP3 SWAP2 POP POP JUMP JUMPDEST PUSH2 0x531 DUP2 PUSH2 0x4EF JUMP JUMPDEST DUP2 EQ PUSH2 0x53B JUMPI PUSH0 DUP1 REVERT JUMPDEST POP JUMP JUMPDEST PUSH0 DUP2 CALLDATALOAD SWAP1 POP PUSH2 0x54C DUP2 PUSH2 0x528 JUMP JUMPDEST SWAP3 SWAP2 POP POP JUMP JUMPDEST PUSH0 DUP1 REVERT JUMPDEST PUSH0 DUP1 REVERT JUMPDEST PUSH0 DUP1 REVERT JUMPDEST PUSH0 DUP1 DUP4 PUSH1 0x1F DUP5 ADD SLT PUSH2 0x573 JUMPI PUSH2 0x572 PUSH2 0x552 JUMP JUMPDEST JUMPDEST DUP3 CALLDATALOAD SWAP1 POP PUSH8 0xFFFFFFFFFFFFFFFF DUP2 GT ISZERO PUSH2 0x590 JUMPI PUSH2 0x58F PUSH2 0x556 JUMP JUMPDEST JUMPDEST PUSH1 0x20 DUP4 ADD SWAP2 POP DUP4 PUSH1 0x1 DUP3 MUL DUP4 ADD GT ISZERO PUSH2 0x5AC JUMPI PUSH2 0x5AB PUSH2 0x55A JUMP JUMPDEST JUMPDEST SWAP3 POP SWAP3 SWAP1 POP JUMP JUMPDEST PUSH0 DUP1 PUSH0 DUP1 PUSH0 DUP1 PUSH1 0x80 DUP8 DUP10 SUB SLT ISZERO PUSH2 0x5CD JUMPI PUSH2 0x5CC PUSH2 0x46A JUMP JUMPDEST JUMPDEST PUSH0 PUSH2 0x5DA DUP10 DUP3 DUP11 ADD PUSH2 0x53E JUMP JUMPDEST SWAP7 POP POP PUSH1 0x20 PUSH2 0x5EB DUP10 DUP3 DUP11 ADD PUSH2 0x53E JUMP JUMPDEST SWAP6 POP POP PUSH1 0x40 DUP8 ADD CALLDATALOAD PUSH8 0xFFFFFFFFFFFFFFFF DUP2 GT ISZERO PUSH2 0x60C JUMPI PUSH2 0x60B PUSH2 0x46E JUMP JUMPDEST JUMPDEST PUSH2 0x618 DUP10 DUP3 DUP11 ADD PUSH2 0x55E JUMP JUMPDEST SWAP5 POP SWAP5 POP POP PUSH1 0x60 DUP8 ADD CALLDATALOAD PUSH8 0xFFFFFFFFFFFFFFFF DUP2 GT ISZERO PUSH2 0x63B JUMPI PUSH2 0x63A PUSH2 0x46E JUMP JUMPDEST JUMPDEST PUSH2 0x647 DUP10 DUP3 DUP11 ADD PUSH2 0x55E JUMP JUMPDEST SWAP3 POP SWAP3 POP POP SWAP3 SWAP6 POP SWAP3 SWAP6 POP SWAP3 SWAP6 JUMP JUMPDEST PUSH0 DUP1 PUSH1 0x40 DUP4 DUP6 SUB SLT ISZERO PUSH2 0x66C JUMPI PUSH2 0x66B PUSH2 0x46A JUMP JUMPDEST JUMPDEST PUSH0 PUSH2 0x679 DUP6 DUP3 DUP7 ADD PUSH2 0x53E JUMP JUMPDEST SWAP3 POP POP PUSH1 0x20 PUSH2 0x68A DUP6 DUP3 DUP7 ADD PUSH2 0x53E JUMP JUMPDEST SWAP2 POP POP SWAP3 POP SWAP3 SWAP1 POP JUMP JUMPDEST PUSH0 DUP2 SWAP1 POP SWAP2 SWAP1 POP JUMP JUMPDEST PUSH0 PUSH2 0x6B7 PUSH2 0x6B2 PUSH2 0x6AD DUP5 PUSH2 0x4D0 JUMP JUMPDEST PUSH2 0x694 JUMP JUMPDEST PUSH2 0x4D0 JUMP JUMPDEST SWAP1 POP SWAP2 SWAP1 POP JUMP JUMPDEST PUSH0 PUSH2 0x6C8 DUP3 PUSH2 0x69D JUMP JUMPDEST SWAP1 POP SWAP2 SWAP1 POP JUMP JUMPDEST PUSH0 PUSH2 0x6D9 DUP3 PUSH2 0x6BE JUMP JUMPDEST SWAP1 POP SWAP2 SWAP1 POP JUMP JUMPDEST PUSH2 0x6E9 DUP2 PUSH2 0x6CF JUMP JUMPDEST DUP3 MSTORE POP POP JUMP JUMPDEST PUSH0 PUSH1 0x20 DUP3 ADD SWAP1 POP PUSH2 0x702 PUSH0 DUP4 ADD DUP5 PUSH2 0x6E0 JUMP JUMPDEST SWAP3 SWAP2 POP POP JUMP JUMPDEST PUSH0 DUP3 DUP3 MSTORE PUSH1 0x20 DUP3 ADD SWAP1 POP SWAP3 SWAP2 POP POP JUMP JUMPDEST PUSH32 0x4964656E746963616C2061646472657373206973206E6F7420616C6C6F776564 PUSH0 DUP3 ADD MSTORE POP JUMP JUMPDEST PUSH0 PUSH2 0x74C PUSH1 0x20 DUP4 PUSH2 0x708 JUMP JUMPDEST SWAP2 POP PUSH2 0x757 DUP3 PUSH2 0x718 JUMP JUMPDEST PUSH1 0x20 DUP3 ADD SWAP1 POP SWAP2 SWAP1 POP JUMP JUMPDEST PUSH0 PUSH1 0x20 DUP3 ADD SWAP1 POP DUP2 DUP2 SUB PUSH0 DUP4 ADD MSTORE PUSH2 0x779 DUP2 PUSH2 0x740 JUMP JUMPDEST SWAP1 POP SWAP2 SWAP1 POP JUMP JUMPDEST PUSH32 0x5061697220616C72656164792065786973747300000000000000000000000000 PUSH0 DUP3 ADD MSTORE POP JUMP JUMPDEST PUSH0 PUSH2 0x7B4 PUSH1 0x13 DUP4 PUSH2 0x708 JUMP JUMPDEST SWAP2 POP PUSH2 0x7BF DUP3 PUSH2 0x780 JUMP JUMPDEST PUSH1 0x20 DUP3 ADD SWAP1 POP SWAP2 SWAP1 POP JUMP JUMPDEST PUSH0 PUSH1 0x20 DUP3 ADD SWAP1 POP DUP2 DUP2 SUB PUSH0 DUP4 ADD MSTORE PUSH2 0x7E1 DUP2 PUSH2 0x7A8 JUMP JUMPDEST SWAP1 POP SWAP2 SWAP1 POP JUMP INVALID PUSH1 0x80 PUSH1 0x40 MSTORE CALLVALUE DUP1 ISZERO PUSH1 0xE JUMPI PUSH0 DUP1 REVERT JUMPDEST POP PUSH1 0x3E DUP1 PUSH1 0x1A PUSH0 CODECOPY PUSH0 RETURN INVALID PUSH1 0x80 PUSH1 0x40 MSTORE PUSH0 DUP1 REVERT INVALID LOG2 PUSH5 0x6970667358 0x22 SLT KECCAK256 DUP5 EXTCODESIZE 0xF8 0xD9 GASPRICE PUSH13 0xDC677D2B94AFB1011E8B50A523 0xDF 0xBE CALL 0xDD JUMP SWAP15 DELEGATECALL GT 0x22 PUSH16 0x2B312064736F6C634300081A0033A264 PUSH10 0x706673582212207349A1 EXP 0xBC 0x2F 0xB8 0xD1 DELEGATECALL BYTE 0xEF 0xB3 0xEA 0xD4 ORIGIN 0xBB 0xC9 0xC8 CODESIZE 0xB6 0xA6 0xB9 CALLDATACOPY DUP13 DUP15 0x4C PUSH3 0xF1292D 0xD1 0xE4 PUSH5 0x736F6C6343 STOP ADDMOD BYTE STOP CALLER "
				},
				"gasEstimates": {
					"creation": {
						"codeDepositCost": "433200",
						"executionCost": "466",
						"totalCost": "433666"
					},
					"external": {
						"allPairs(uint256)": "4921",
						"createPairs(address,address,string,string)": "infinite",
						"getPair(address,address)": "infinite"
					}
				},
				"methodIdentifiers": {
					"allPairs(uint256)": "1e3dd18b",
					"createPairs(address,address,string,string)": "46efd821",
					"getPair(address,address)": "e6a43905"
				}
			},
			"storageLayout": {
				"storage": [
					{
						"astId": 8,
						"contract": "contracts/QiteSwap.sol:QiteSwap",
						"label": "allPairs",
						"offset": 0,
						"slot": "0",
						"type": "t_array(t_address)dyn_storage"
					},
					{
						"astId": 15,
						"contract": "contracts/QiteSwap.sol:QiteSwap",
						"label": "getPair",
						"offset": 0,
						"slot": "1",
						"type": "t_mapping(t_address,t_mapping(t_address,t_contract(QitePool)2))"
					}
				],
				"types": {
					"t_address": {
						"encoding": "inplace",
						"label": "address",
						"numberOfBytes": "20"
					},
					"t_array(t_address)dyn_storage": {
						"base": "t_address",
						"encoding": "dynamic_array",
						"label": "address[]",
						"numberOfBytes": "32"
					},
					"t_contract(QitePool)2": {
						"encoding": "inplace",
						"label": "contract QitePool",
						"numberOfBytes": "20"
					},
					"t_mapping(t_address,t_contract(QitePool)2)": {
						"encoding": "mapping",
						"key": "t_address",
						"label": "mapping(address => contract QitePool)",
						"numberOfBytes": "32",
						"value": "t_contract(QitePool)2"
					},
					"t_mapping(t_address,t_mapping(t_address,t_contract(QitePool)2))": {
						"encoding": "mapping",
						"key": "t_address",
						"label": "mapping(address => mapping(address => contract QitePool))",
						"numberOfBytes": "32",
						"value": "t_mapping(t_address,t_contract(QitePool)2)"
					}
				}
			},
			"userdoc": {
				"kind": "user",
				"methods": {},
				"version": 1
			}
		}
	}
}